:020000040800F2
:10000000002000204D070008CD050008CF0500089E
:1000100000000000000000000000000000000000E0
:10002000000000000000000000000000D1050008F2
:100030000000000000000000D3050008D5050008FE
:100040009D070008000000009D0700089D070008AC
:100050009D0700089D0700089D0700089D070008F0
:10006000000000009D0700089D0700089D0700088C
:100070009D070008DD050008ED05000800000000F0
:100080009D07000800000000000000009D07000818
:10009000000000009D0700089D0700089D0700085C
:1000A0009D0700089D0700089D0700089D070008A0
:0800B0009D070008000000009C
:1000B80010B5064C2378002B07D1054B002B02D036
:1000C800044800E000BF0123237010BD3C04002059
:1000D8000000000010210008044B10B5002B03D0CD
:1000E8000349044800E000BF10BDC04600000000FE
:1000F8004004002010210008002243088B4274D3DA
:1001080003098B425FD3030A8B4244D3030B8B4210
:1001180028D3030C8B420DD3FF22090212BA030C19
:100128008B4202D31212090265D0030B8B4219D3FA
:1001380000E0090AC30B8B4201D3CB03C01A52411A
:10014800830B8B4201D38B03C01A5241430B8B4262
:1001580001D34B03C01A5241030B8B4201D30B034B
:10016800C01A5241C30A8B4201D3CB02C01A524172
:10017800830A8B4201D38B02C01A5241430A8B4235
:1001880001D34B02C01A5241030A8B4201D30B021E
:10019800C01A5241CDD2C3098B4201D3CB01C01A38
:1001A800524183098B4201D38B01C01A5241430942
:1001B8008B4201D34B01C01A524103098B4201D330
:1001C8000B01C01A5241C3088B4201D3CB00C01A9D
:1001D800524183088B4201D38B00C01A5241430815
:1001E8008B4201D34B00C01A5241411A00D201463A
:1001F800524110467047FFE701B5002000F006F8AD
:1002080002BDC0460029F7D076E770477047C04660
:1002180000B585B00C22002101A801F09FFE1A4804
:100228001A4B03608023DB05436000238360C360AF
:10023800036104224261037643768376033AC261FE
:100248001F328354436283620C32835403634363D3
:10025800836310328354C36400F002FB00280CD17E
:100268000123019300230293039301A9064800F098
:1002780019FC002804D105B000BD00F087F8EFE7AD
:1002880000F084F8F7E7C046580400200024014035
:1002980010B588B004001422002103A801F05EFE06
:1002A8002268104B9A4201D008B010BD0E4B196C51
:1002B80080204003014319641A6C02400192019A9C
:1002C800596B0122114359635B6B13400293029BE4
:1002D800039203230493A02003A9C00500F08AFD1C
:1002E800E2E7C0460024014000100240F0B589B0A2
:1002F8001422002103A801F031FE224B5A6B01257C
:100308002A435A635A6B2A400192019A596B022276
:10031800114359635B6B1A400292029B8121A0260C
:10032800F60500220901300000F020FE01222021FC
:10033800300000F01BFE144F00220821380000F0A6
:1003480015FE1023039301330493059500240694A6
:1003580003A9300000F04EFD82231B01039304958E
:100368000594069403A9300000F044FD0823039384
:1003780004950594069403A9380000F03BFD09B0E4
:10038800F0BDC046001002400004005072B6FEE7FF
:1003980000B593B03422002105A801F0DFFD10223A
:1003A800002101A801F0DAFD8020800000F0E4FDC2
:1003B80002230593802252000892002209924021CC
:1003C8000A910C930D930E9206330F9380239B0290
:1003D800109380239B05119305A800F0F7FD0028D2
:1003E8000ED107230193053B029300230393049343
:1003F800022101A801F098F8002803D113B000BD2C
:10040800FFF7C4FFFFF7C2FF10B500F0F1F9FFF7DF
:10041800BFFFFFF76BFFFFF7FBFE00F0EDF800F002
:1004280003F800F035F8FCE710B500F0ABF8044B22
:100438001B78012B00D010BD014B00221A70FAE77F
:10044800C204002010B5002805D101220821054862
:1004580000F08CFD10BD00220821024800F086FD46
:10046800F8E7C0460004005010B5002807D08021E6
:10047800A02001220901C00500F078FD10BD8021EF
:10048800A02000220901C00500F070FDF6E7000079
:1004980010B5A02001221021C00500F067FD002042
:1004A800FFF7D0FFFA246400200000F0C7F9054BDD
:1004B8001868FFF7D9FF0120FFF7C4FF200000F0FC
:1004C800BDF910BDC80400201E4BC3189BB21E4ABC
:1004D800934202D81D4B01221A701C4B1B78012B2A
:1004E80000D070471A4BC3189BB295225200934212
:1004F80014D8184A13685B001360174A136801334D
:100508001360154B1B68202BEBD10023124A136094
:100518000E4A1370114B01221A70E2E7104B9C46E9
:10052800604480B2F9235B009842EAD8094A13680C
:100538005B0001210B431360074A13680133136002
:10054800DFE7C0461FD1FFFFB60B0000C304002041
:1005580017FCFFFFBC040020C4040020C2040020D4
:100568002FF8FFFF00B583B00190002101A801F02A
:100578002EF980B2024B1880FFF7A6FF03B000BD2A
:10058800C004002010B5A02000221021C00500F0F2
:10059800EDFC10BD82B00A4B196C0122114319649D
:1005A800196C0A400092009ADA6B802149050A43C7
:1005B800DA63DB6B0B400193019B02B07047C046C6
:1005C80000100240FEE7FEE77047704710B500F0E4
:1005D80023F910BD10B5024801F016F910BDC04648
:1005E800CC04002010B5024801F00EF910BDC04639
:1005F800CC0400207047000000B58DB01022002107
:1006080008A801F0ABFC0C22002105A801F0A6FC0B
:100618001022002101A801F0A1FC2648264B036006
:100628003F23436000238360244AC260036143611F
:100638008033836101F0E6F900282BD180235B0128
:10064800089308A91B4801F0D5FA002825D11948B4
:1006580001F008FA002823D1002305930693079395
:1006680005A9144801F01CFC00281CD102230193A1
:10067800013B0293002303930493002201A90D4830
:1006880001F046FA002811D100210A4801F044FB84
:100698000DB000BDFFF77AFED0E7FFF777FED6E78B
:1006A800FFF774FED8E7FFF771FEDFE7FFF76EFE8E
:1006B800EAE7C046CC040020002C0140FFFF000000
:1006C80010B588B004001422002103A801F046FCEC
:1006D80022681A4B9A4201D008B010BD184B196C09
:1006E80080200001014319641A6C02400192019AAA
:1006F800596B0122114359635B6B13400293029BB0
:1007080080235B000393FE3B049305920793A0208C
:1007180003A9C00500F06EFB002200210D2000F0A7
:1007280011FB0D2000F03EFB002200210E2000F0FE
:1007380009FB0E2000F036FBCEE7C046002C014036
:10074800001002400D488546FFF754FF0C480D493C
:100758000D4A002302E0D458C4500433C4188C4214
:10076800F9D30A4A0A4C002301E013600432A2427A
:10077800FBD301F0D1FBFFF747FEFEE70020002086
:10078800000000203C040020782100083C040020E0
:1007980020050020FEE7000010B50400114B197871
:1007A800002901D1012010BDFA208000FFF7A4FC28
:1007B80001000D4B1868FFF79FFC00F0FFFA0028B6
:1007C8000DD1032C01D90120EDE7013000222100D1
:1007D800404200F0B7FA054B1C600020E3E7012017
:1007E800E1E7C046040000200000002008000020C7
:1007F80010B5084A116880235B000B43136003207F
:10080800FFF7CAFF041E02D00124200010BDFFF725
:10081800C1FEFAE700200240034B1B78034A116827
:100828005B1813607047C0460400002018050020BC
:10083800014B18687047C0461805002070B50400C1
:10084800FFF7F6FF0500631C02D0044B1B78E41881
:10085800FFF7EEFF401BA042FAD370BD0400002052
:1008680030B583B0040000230193002800D106E1CD
:10087800836D002B13D023689A68D2001CD49A6821
:1008880080491140802252050A439A607E4B1868BD
:100898007E49FFF731FC01304000019009E0FFF785
:1008A800F7FC0023E3655422A354E4E7019B013BD2
:1008B8000193019B002BF9D123689A68D20000D5D7
:1008C8009DE0A26D10210A43A265E26D0F390A432B
:1008D800E26501209A6804210D001540114200D0FC
:1008E8000125A26DD20600D5C2E0002D00D0BFE0E0
:1008F800A26D67490A400631FF310A43A2659A682A
:10090800D20752D4227E9203A1680A43617EC903AA
:100918000A43A57E69030A43216B002901D080217F
:1009280049010A43E1680A432169002969DB8021FA
:1009380089030A432C21615C49000A432021615C38
:10094800012961D0616A002905D0E0256D002940A0
:10095800A56A29430A43D9684E4D29400A43DA60FB
:1009680063689B0F9B07E26C1A433C21615C012979
:1009780059D021680B69484D2B4013430B616368BC
:10098800C0221206934210D08022D20593420CD086
:1009980080221206934208D040490A68404D2A40F6
:1009A800F025AD032B4013430B60226853690721E0
:1009B8008B43616B0B43536121684B6970229343EE
:1009C800A26B120113434B612369002B35D12268B6
:1009D800916A103B0B43936223685A6907231340BB
:1009E800626B9A423BD0A36D12229343023A13439F
:1009F800A365E36D0F3A1343E36501203DE0002052
:100A080068E74900490894E7002D03D1802149028D
:100A18000A4397E7A16D20252943A165E16D1F3D94
:100A28002943E1658EE7216C0B43616C0B43A16C94
:100A38000B43134301221A439BE7802292039342FC
:100A4800CAD121688B6AE369013B9B001C221A40CA
:100A580010235B429340226E13438B62BCE7002352
:100A6800E365A36D03229343023A1343A36504E0AD
:100A7800A36D10221343A365012003B030BD0120EC
:100A8800FBE7C046E8FFFF6F00000020400D0300B1
:100A9800FDFEFFFF0102FEFF02FCFF1F08270140C9
:100AA800FFFFC3FFF0B583B004000023019305697D
:100AB8005433C35C012B00D130E154230122C254CA
:100AC80000688368033216001E401A4209D0A36DDD
:100AD8001C321343A365012054230022E25403B0BF
:100AE800F0BD4B68022B00D1D6E080221206954259
:100AF80026D08B4A954223D01F221340103A9A40A1
:100B0800256E95432A000D686F032FD1AD0E1F2661
:100B18002E409E40164326664D68AB080133E269B5
:100B2800934213D8826A1F231D40103B1E00AE401B
:100B3800B2430E68B60E3340AB401343836205E000
:100B4800826A0B685B035B0B13438362206842690C
:100B58000B681B029A438D682B40724D2B40134340
:100B680043610B68002B4FDB0020B5E7EF07D0D4BB
:100B7800AE0727D46E0727D42E0727D4EE0627D42E
:100B8800AE0627D46E0627D42E0627D4EE0527D422
:100B9800AE0527D46E0527D42E0527D4EE0427D416
:100BA800AE0427D46E0427D42E0427D4EE0327D40A
:100BB800AE0327D48027FF022E003E403D42A8D036
:100BC8001226A6E70126A4E70226A2E70326A0E745
:100BD80004269EE705269CE706269AE7072698E757
:100BE800082696E7092694E70A2692E70B2690E757
:100BF8000C268EE70D268CE70E268AE70F2688E757
:100C0800102686E7112684E7474A1168E022520435
:100C18000A404648834207D04548834222D0454887
:100C280083422CD0002057E70802F5D480231B0408
:100C38001A433D490B68404803401A430A603F4B3A
:100C480018683F49FFF758FA013043001B189B000A
:100C5800019302E0019B013B0193019B002BF9D119
:100C6800002039E7C801DAD480235B041A432E49EF
:100C78000B68314803401A430A6000202CE74B02F6
:100C88004AD48023DB031A4327490B682A480340C8
:100C98001A430A6000201FE780231B069D4202D0EA
:100CA8001F4B9D4205D1826A0B685B035B0B9A431D
:100CB80082620B68002B01DB00200DE71A4A1268DC
:100CC8001A498B4207D01A498B420FD019498B42D7
:100CD80017D0002000E7A0235B041A4012490B68D4
:100CE800154803401A430A600020F5E6C0231B0498
:100CF8001A400D490B68104803401A430A60002047
:100D0800EAE6C0235B041A4007490B680A48034017
:100D18001A430A600020DFE60020DDE60220DEE656
:100D28000400008000FFFF0708270140001000B002
:100D3800004000B8002000B4FFFF3FFE0000002084
:100D4800400D030070B5002811DB8308134EC03333
:100D58009B009D5903242040C000FF2214008440BA
:100D6800A54389010A4082402A439A5170BD0F2346
:100D78000340083B9B0806339B00094A944663449A
:100D88005C6803221040C000FC3215008540AC436B
:100D980089010A40824022435A60E7E700E100E007
:100DA80000ED00E0002805DB1F2318401E3B8340B0
:100DB800014A13607047C04600E100E00138802313
:100DC8005B0498420FD2094A50600948036A1B0223
:100DD8001B0AC02109060B430362002393600733F3
:100DE8001360002070470120FCE7C04610E000E0D7
:100DF80000ED00E0F0B500235AE084685F000326A8
:100E0800BE40B4432600CC68BC4034438460446888
:100E180094434A681609012232409A4022434260AC
:100E280056E0DC080834A400265805321A4092001F
:100E38000F279740BE430F6997403A00324322502C
:100E48005AE0032600E00026A64034003C43434E07
:100E58001832920094513468EA432600AE434F6832
:100E6800FF0201D52C4326003C4C2660646826000E
:100E780016404F68BF0201D52C432600374C6660E8
:100E88008426A459260016404F68BF0301D52C4379
:100E98002600324C8427E6518026A45922404E6809
:100EA800F60301D52A0022432C4D80242A51013310
:100EB8000C682200DA404FD001229A4025001540E4
:100EC8001442F4D003244E683440013C012C94D9D8
:100ED80003224C682240032A09D0C2685E0003241A
:100EE800B440A24314008A68B2402243C26003227D
:100EF8004C682240022A94D004685E00032217003E
:100F0800B740BC434F683A40B24022430260C02217
:100F180092024C681442CAD09A0814001834A400EB
:100F28000E4EA75903241C40E4000F26A640B743E1
:100F3800A026F605B04286D0094EB04208D0094E28
:100F4800B04207D0084EB04200D17AE705267BE7C9
:100F5800012679E7022677E7F0BDC046001802406F
:100F68000004005000080050000C0050002A01D076
:100F7800816170478162FCE710B5104A1368104917
:100F88000B400343136080239B00984201D000204C
:100F980010BD0C4B1B685800C01840000A49FFF7E9
:100FA800ABF80130054B5B695B0503D5002803D01E
:100FB8000138F7E70020EBE70320E9E7007000407D
:100FC800FFF9FFFF0000002040420F0070B582B01B
:100FD800041E00D129E20368DB0739D5C14A9168AC
:100FE80038230B40D16803220A40102B26D0082B47
:100FF80026D063688022520293427FD0A022D20278
:10100800934200D181E0B74B1A68B7490A401A6089
:101018001A68B6490A401A606368002B00D180E05C
:10102800FFF706FC0500AF4B1B689B0310D4FFF7C6
:10103800FFFB401B6428F6D90320F7E1032AD6D129
:10104800A84B1B689B0303D56368002B00D1EFE115
:1010580023689B0731D5A34A936838210B40D16890
:1010680003220A40102B6AD0002B6BD19D4A1268CC
:10107800520503D5E268002A00D1DBE199484268AD
:101088009B490A40616909020A434260002B0DD15D
:10109800036898490B4021690B4303600368DB0A26
:1010A80007221A40944BD340944A1360944B186813
:1010B800FFF772FB002800D0BEE123681B0700D4AD
:1010C80081E0884B9A6838231340182B73D0A369A2
:1010D800002B00D1B4E0834A136E01210B43136641
:1010E800FFF7A6FB05007F4B1B6E9B076BD4FFF732
:1010F8009FFB401B0228F6D9032097E1794A116823
:1011080080235B020B43136086E7764B19688022C5
:10111800D2020A431A601968802252020A431A60EE
:101128007AE7FFF785FB05006E4B1B689B038FD59D
:10113800FFF77EFB401B6428F6D9032076E1022ADC
:1011480092D193E7E368002B22D0664A1368694975
:101158000B4021690B431360116880235B000B432C
:101168001360FFF765FB05005E4B1B685B0506D443
:10117800FFF75EFB401B0228F6D9032056E15949C8
:101188004B685B4A13406269120213434B6094E751
:10119800544A13685B490B401360FFF749FB05008D
:1011A800504B1B685B0588D5FFF742FB401B0228A4
:1011B800F6D903203AE14B4B1B6E9B0703D5A36975
:1011C800002B00D13AE123685B0700D4A2E0454B2D
:1011D8009A6838231340202B45D0424BDB6BDB0049
:1011E8004AD4404AD16B802040050143D163D36B78
:1011F80003400193019B0125434B1B68DB053DD54B
:10120800A368012B4ED0052B52D0364BDA6D012145
:101218008A43DA65DA6D03318A43DA65A368002BFD
:1012280050D0FFF705FB06002E4BDB6D9B076FD4F4
:10123800FFF7FEFA801B354B9842F5D90320F5E0FD
:10124800284A136E01218B431366FFF7F1FA050054
:10125800244B1B6E9B07B6D5FFF7EAFA401B022802
:10126800F6D90320E2E01F4BDB6D9B0752D5A3683C
:10127800002B4FD10120D9E00025BDE7224A116893
:1012880080235B000B431360FFF7D2FA06001E4B66
:101298001B68DB05B4D4FFF7CBFA801B0228F6D90C
:1012A8000320C3E00F4AD36D01210B43D365B5E793
:1012B8000C4BDA6D04210A43DA65DA6D03390A4307
:1012C800DA65ABE7FFF7B4FA0600064BDB6D9B0760
:1012D8001ED5FFF7ADFA801B0C4B9842F5D90320B9
:1012E800A4E0C04600100240FFFFFEFFFFFFFBFF27
:1012F800FF80FFFFFFC7FFFF0024F400000000206D
:1013080008000020FFFEFFFF007000408813000067
:10131800012D1ED0E369002B00D191E04F4A91685E
:1013280038220A40102A5ED0022B18D04B4A136884
:101338004B490B401360FFF77BFA0400474B1B68CF
:101348009B0149D5FFF774FA001B0228F6D9032040
:101358006CE0424AD36B43490B40D363DAE73F4A18
:1013680013683F490B401360FFF762FA05003B4BD7
:101378001B689B0106D5FFF75BFA401B0228F6D9CC
:10138800032053E0354AD36837491940236A606A15
:101398000343A06A00020343E06A0343206B03434C
:1013A8000B43D360116880235B040B431360D1683F
:1013B80080235B050B43D360FFF73AFA0400274B01
:1013C8001B689B0106D4FFF733FA001B0228F6D9E5
:1013D80003202BE0002029E0204AD36823490B4052
:1013E800D360002022E0012B2CD01C4BDA680323A9
:1013F8001340216A8B4227D170231340616A8B42C4
:1014080024D1FE21C9011140A36A1B0299421FD1B0
:10141800F8239B031340E16A8B421BD1520F5207FA
:10142800236B9A4218D1002000E0012002B070BD61
:101438000120FBE70120F9E70120F7E70120F5E7A4
:101448000020F3E70120F1E70120EFE70120EDE7B5
:101458000120EBE70120E9E70120E7E7001002405F
:10146800FFFFFFFEFFFFFFEF8C80C11FFCFFFEEFB9
:1014780010B52A4B9B6838221A4207D1274B1A68A5
:10148800D20A072313402648D84010BD234B9A6838
:1014980038231340082B3BD0204B9A68382313403D
:1014A800102B0DD01D4B9A6838231340202B31D0B8
:1014B8001A4B9A6838231340182B26D00020E4E7EB
:1014C800164AD1680D3B0B40D2681209072111401A
:1014D8000131032B0FD01248FEF70EFE0F4BDA68CE
:1014E800120A7F23134058430C4BD968490F013126
:1014F800FEF702FEC9E70B48FEF7FEFD074BDA6868
:10150800120A7F2313405843EEE7FA20C001BCE7D4
:101518000448BAE780200002B7E7C046001002403E
:101528000024F40000127A0070B504000D000028B1
:1015380000D1AAE0574B1A68072313408B4221D3E6
:1015480023689A070ED55B0705D5534A9168E023AF
:10155800DB010B439360504A936850490B40A168E4
:101568000B4393602368DB0754D56368012B20D0B5
:10157800022B3BD0002B3FD1474A126852051CD49E
:1015880001206AE0434A136807218B432B43136009
:10159800FFF74EF906003F4B1A6807231340AB428A
:1015A800CED0FFF745F9801B3D4A9042F3D903207E
:1015B80053E0394A1268920369D537498A68072087
:1015C800824313438B60FFF733F90600324B9B6865
:1015D80038221A406368DB009A421BD0FFF728F9CB
:1015E800801B2F4B9842F1D9032036E02A4A126813
:1015F8009201E2D4012030E0032B05D0264AD26DB7
:101608009207DAD4012028E0234A126E9207D4D434
:10161800012022E01F4B1A6807231340AB421DD854
:1016280023685B0706D51C4A93681E490B40E1688E
:101638000B439360FFF71CFF174B9A68120A0F239E
:1016480013409B00184A9A581F231340D840174B41
:101658001860174B1868FFF79FF870BD0D4A13689C
:1016680007218B432B431360FFF7E2F80600094B71
:101678001A6807231340AB42D2D0FFF7D9F8801B72
:10168800074B9842F3D90320E7E70120E5E701205B
:10169800E3E7C0460020024000100240FFF0FFFFD1
:1016A80088130000FF8FFFFF28210008000000209A
:1016B8000800002030B5036A046A0125AC430462BF
:1016C8008469EF35AC43120122430A24A3430B4338
:1016D8008261036230BD000070B5046A1025AC4316
:1016E80004628569046A084E354012022A43074D90
:1016F8002A401B071B0C1343A022944309010A40EC
:1017080022438361026270BDFFFCFFFFFF0FFFFFF2
:1017180030B5036A1024A34303628469036A054D44
:101728002C4012032243A024A343090119438261D8
:10173800016230BDFF0FFFFF70B5056A0B4C2540F5
:101748000562C469056A0326B4431443F02294432E
:101758001A01FF2313401C43054B1D400902A02317
:101768001B0119402943C461016270BDFFFEFFFFE0
:10177800FFF5FFFF70B5046A0B4D2C400462C56984
:10178800046A0A4E354012022A43094D2A401B07B3
:101798001B0C1343074A14400903A02212021140EC
:1017A8002143C361016270BDFFEFFFFFFFFCFFFF34
:1017B800FF0FFFFFFF5FFFFF8368034A13400B43E0
:1017C80007210B43836070478FFFCFFF70470829BD
:1017D80013D008D800290DD0042902D10368986BCA
:1017E80007E0002005E00C2902D10368186C00E02E
:1017F800002070470368586BFBE70368D86BF8E76D
:10180800704770477047704710B5040003681A693D
:1018180092070FD5DA6892070CD5032252421A6153
:101828000123037703689B699B076AD0FEF79AFE3A
:101838000023237723681A69520712D5DA685207FA
:101848000FD5052252421A610223237723689A6929
:10185800C0239B001A425AD02000FEF783FE0023C3
:10186800237723681A69120710D5DA6812070DD58D
:10187800092252421A61042323772368DB699B07F4
:101888004CD02000FEF76EFE0023237723681A69E8
:10189800D20612D5DA68D2060FD5112252421A6141
:1018A800082323772368DA69C0239B001A423CD0B7
:1018B8002000FEF757FE0023237723681A69D20712
:1018C80002D5DA68D20737D423681A69120602D516
:1018D800DA68120637D423681A69D20502D5DA689D
:1018E800120637D423681A69520602D5DA685206F6
:1018F80036D423681A69920602D5DA68920636D475
:1019080010BDFFF77EFF2000FFF77CFF90E7200067
:10191800FFF777FF2000FFF775FFA0E72000FFF72C
:1019280070FF2000FFF76EFFAEE72000FFF769FFAA
:101938002000FFF767FFBEE7022252421A6120002B
:10194800FFF75EFFC0E7812252421A61200000F0D3
:10195800E0FAC0E7094A1A61200000F0DBFAC1E7A3
:10196800412252421A612000FFF74DFFC1E72122B0
:1019780052421A61200000F0CBFAC1E7FFFEFFFFD8
:1019880003681A4A904202D0194A904203D1702241
:1019980093434A681343154A90420BD0144A904225
:1019A80008D0144A904205D0134A904202D0134AF4
:1019B800904203D1124A1340CA68134380229343CA
:1019C8004A69134303608B68C3620B688362074BE1
:1019D800984205D0084B984202D0084B984201D152
:1019E8000B690363012343617047C046002C014023
:1019F800000400400020004000440140004801402D
:101A0800FFFCFFFF70B5041E2AD03D23C35C002BEA
:101A180020D03D2502236355210001C9FFF7B0FFFF
:101A280001234822A3540A3AA3540132A354013291
:101A3800A3540132A3540132A3540132A3540132F6
:101A4800A3540132A3540132A3540132A354635561
:101A5800002070BD3C330022C254FEF731FED8E7A7
:101A68000120F6E770B5041E2AD03D23C35C002B85
:101A780020D03D2502236355210001C9FFF780FFCF
:101A880001234822A3540A3AA3540132A354013231
:101A9800A3540132A3540132A3540132A354013296
:101AA800A3540132A3540132A3540132A354635501
:101AB800002070BD3C330022C254FFF787FED8E7F0
:101AC8000120F6E7F0B517001D00036A01229343D1
:101AD80003628269066A0C4B984205D00B4B984208
:101AE80002D001231A4302E003239A433A43F02326
:101AF8009A432D01FF242C402243E63B9E430B4092
:101B0800334382610362F0BD002C014000040040B1
:101B180070B504000D003C23C35C012B59D03C2355
:101B28000121C154002A0AD0042A1AD0082A2BD02D
:101B38000C2A3BD001203C230022E25470BDEB6804
:101B48006A6829680068FFF7BDFF226893690C215D
:101B58008B43936122689369A9680B4393610020C2
:101B6800E9E7EB686A6829680068FFF7B5FD22684D
:101B7800936919490B40936121688B69AA6812021D
:101B880013438B610020D6E7EB686A682968006810
:101B9800FFF7D2FD2268D3690C218B43D3612268F9
:101BA800D369A9680B43D3610020C4E7EB686A686E
:101BB80029680068FFF7DEFD2268D36906490B40F3
:101BC800D3612168CB69AA6812021343CB61002054
:101BD800B1E70220B2E7C046FFF3FFFF30B58468E3
:101BE800034D2C401B0213430B432343836030BD3A
:101BF800FF00FFFF10B504003C23C35C012B00D19C
:101C080078E03C230122C25401330132C2540268F5
:101C180093683948034093600B68602B50D02AD8EA
:101C2800402B58D00CD9502B23D1CA68496820685A
:101C3800FFF740FD50212068FFF7BEFD002005E0BA
:101C4800202B0ED009D9302B0BD001203D230122A7
:101C5800E254013B0022E25410BD002B01D0102BAE
:101C680005D119002068FFF7A7FD0020EEE7012045
:101C7800ECE70120EAE780225201934236D0802225
:101C8800920193420DD1CB684A6889682068FFF7B2
:101C9800A5FF226891688023DB010B439360002035
:101CA800D4E7702B24D1CB684A6889682068FFF78D
:101CB80095FF2268936877210B4393600020C5E75E
:101CC800CA6849682068FFF723FD60212068FFF78C
:101CD80073FD0020BAE7CA6849682068FFF7EAFC84
:101CE80040212068FFF768FD0020AFE70020ADE73E
:101CF8000120ABE70220AFE78800CEFF10B51F2315
:101D0800194001248C40036AA3430362036A8A4092
:101D18001343036210BD000010B50400002925D14B
:101D28003E23C05CC0B200293CD14423E35CDBB253
:101D3800012800D0A8E0012B00D0A6E0002941D15D
:101D48003E220130A054002958D144220220A05438
:101D5800082900D184E063D800296BD004295DD11B
:101D68002268D36804200343D36068E0042909D0BB
:101D780008290BD00C290DD010290FD04323C05CA3
:101D8800C0B2D0E73F23C05CC0B2CCE74023C05C00
:101D9800C0B2C8E74123C05CC0B2C4E74223C05CFC
:101DA800C0B2C0E7042905D0082907D04723E35C5F
:101DB800DBB2BDE74523E35CDBB2B9E74623E35C6E
:101DC800DBB2B5E7042909D008290BD00C290DD0BE
:101DD80010290FD043220220A054B4E73F2202204A
:101DE800A054B0E740220220A054ACE741220220D0
:101DF800A054A8E742220220A054A4E7042905D051
:101E0800082907D047220220A054A1E74522022032
:101E1800A0549DE746220220A05499E7180034E018
:101E28000C2905D12268D36810200343D36006E04B
:101E380018002AE02268D36802200343D3600122F5
:101E48002068FFF75BFF2368124A93420ED0124ABC
:101E580093420BD01A6801210A431A60002014E04B
:101E68002268D36808200343D360E8E79A680B49DF
:101E78000A40062A0AD007398A4209D01A6801217D
:101E88000A431A60002000E0012010BD0020FCE792
:101E98000020FAE7002C0140000400400700010080
:101EA80030B53C23C35C012B29D03C230122C2540A
:101EB80001330132C254026853689468114DAA4232
:101EC80018D07025AB430D682B43536003680D4A47
:101ED800934202D00C4A934204D1802294438A68E8
:101EE80014439C603D230122C254013B0022C2548A
:101EF800002030BD054D2B404D682B43E1E7022003
:101F0800F7E7C046002C014000040040FFFF0FFF28
:101F1800704770477047000070B50C4D0C4E761B2B
:101F2800B61005D0002408CD01349847A642FAD14E
:101F380000F0EAF8074D084E761BB61005D00024CD
:101F480008CD01349847A642FAD170BD6C2100082B
:101F58006C2100086C21000874210008F0B5050008
:101F6800830749D0541E002A45D003000326CAB26D
:101F780002E00135013C3ED301332A703342F8D1E7
:101F8800032C30D9FF220A40150215432A041543B1
:101F98000F2C34D92700103F3F093E01B4461E00DC
:101FA8001A0010366644156055609560D560103289
:101FB800B242F8D101373F01DB190F270C22274025
:101FC80022403C00002A0ED03E1FB608B400A446AA
:101FD8001A001C1D644420C2A242FCD1032401360D
:101FE800B6009B193C40002C05D0C9B21C191970C9
:101FF80001339C42FBD1F0BD03001400C0E7270069
:10200800E2E7C046034B10B5002B02D0024800F0AF
:1020180005F810BD000000003520000810B50100CB
:1020280000230022002000F019F810BD70B5074DFC
:10203800074C641BA41005D0013CA300EB5898473B
:10204800002CF9D100F066F870BDC0467421000874
:10205800782100087047C0467047C046F0B5D6469C
:102068004F464646C0B5264F82B0060038689246AD
:1020780098468946FFF7EEFF224B1B680193A4237D
:10208800019A5B00D558002D2ED06C681F2C30DCCF
:10209800002E0FD1631C6B604B460234A4003868D5
:1020A8006351FFF7D9FF002002B0E0BCBA46B14641
:1020B800A846F0BD882251462800A300EB18995085
:1020C800873AA2408930FF300168114301608421BA
:1020D800404649005850022EDCD12B008D33FF3387
:1020E80019680A431A60D5E715004D35FF35D550F4
:1020F800CBE73868FFF7B0FF01204042D4E7C0467D
:102108003804002068210008F8B5C046F8BC08BCAF
:102118009E467047F8B5C046F8BC08BC9E46704756
:1021280000000000000000000000000000000000A7
:102138000000000000000000000000000000000097
:10214800010000000200000003000000040000007D
:102158000600000007000000080000000900000059
:042168001000002043
:08216C000D200008E10000084D
:04217400B9000008A6
:102178000024F4000100000004000000000000003A
:1021880000000000FC02002064030020CC030020B3
:102198000000000000000000000000000000000037
:1021A8000000000000000000000000000000000027
:1021B8000000000000000000000000000000000017
:1021C8000000000000000000000000000000000007
:1021D80000000000000000000000000000000000F7
:1021E80000000000000000000000000000000000E7
:1021F80000000000000000000000000000000000D7
:1022080000000000000000000000000000000000C6
:1022180000000000000000000000000000000000B6
:1022280000000000000000000100000000000000A5
:102238000E33CDAB34126DE6ECDE05000B0000006A
:102248000000000000000000000000000000000086
:102258000000000000000000000000000000000076
:102268000000000000000000000000000000000066
:102278000000000000000000000000000000000056
:0C25A80000000000000000001C050020E6
:040000050800074D9B
:00000001FF
